{
  "contractName": "Land",
  "abi": [
    {
      "inputs": [
        {
          "internalType": "string",
          "name": "_name",
          "type": "string"
        },
        {
          "internalType": "string",
          "name": "_symbol",
          "type": "string"
        },
        {
          "internalType": "uint256",
          "name": "_cost",
          "type": "uint256"
        }
      ],
      "stateMutability": "nonpayable",
      "type": "constructor"
    },
    {
      "anonymous": false,
      "inputs": [
        {
          "indexed": true,
          "internalType": "address",
          "name": "owner",
          "type": "address"
        },
        {
          "indexed": true,
          "internalType": "address",
          "name": "approved",
          "type": "address"
        },
        {
          "indexed": true,
          "internalType": "uint256",
          "name": "tokenId",
          "type": "uint256"
        }
      ],
      "name": "Approval",
      "type": "event"
    },
    {
      "anonymous": false,
      "inputs": [
        {
          "indexed": true,
          "internalType": "address",
          "name": "owner",
          "type": "address"
        },
        {
          "indexed": true,
          "internalType": "address",
          "name": "operator",
          "type": "address"
        },
        {
          "indexed": false,
          "internalType": "bool",
          "name": "approved",
          "type": "bool"
        }
      ],
      "name": "ApprovalForAll",
      "type": "event"
    },
    {
      "anonymous": false,
      "inputs": [
        {
          "indexed": true,
          "internalType": "address",
          "name": "from",
          "type": "address"
        },
        {
          "indexed": true,
          "internalType": "address",
          "name": "to",
          "type": "address"
        },
        {
          "indexed": true,
          "internalType": "uint256",
          "name": "tokenId",
          "type": "uint256"
        }
      ],
      "name": "Transfer",
      "type": "event"
    },
    {
      "inputs": [
        {
          "internalType": "address",
          "name": "to",
          "type": "address"
        },
        {
          "internalType": "uint256",
          "name": "tokenId",
          "type": "uint256"
        }
      ],
      "name": "approve",
      "outputs": [],
      "stateMutability": "nonpayable",
      "type": "function"
    },
    {
      "inputs": [
        {
          "internalType": "address",
          "name": "owner",
          "type": "address"
        }
      ],
      "name": "balanceOf",
      "outputs": [
        {
          "internalType": "uint256",
          "name": "",
          "type": "uint256"
        }
      ],
      "stateMutability": "view",
      "type": "function"
    },
    {
      "inputs": [
        {
          "internalType": "uint256",
          "name": "",
          "type": "uint256"
        }
      ],
      "name": "buildings",
      "outputs": [
        {
          "internalType": "string",
          "name": "name",
          "type": "string"
        },
        {
          "internalType": "address",
          "name": "owner",
          "type": "address"
        },
        {
          "internalType": "int256",
          "name": "posX",
          "type": "int256"
        },
        {
          "internalType": "int256",
          "name": "posY",
          "type": "int256"
        },
        {
          "internalType": "int256",
          "name": "posZ",
          "type": "int256"
        },
        {
          "internalType": "uint256",
          "name": "sizeX",
          "type": "uint256"
        },
        {
          "internalType": "uint256",
          "name": "sizeY",
          "type": "uint256"
        },
        {
          "internalType": "uint256",
          "name": "sizeZ",
          "type": "uint256"
        }
      ],
      "stateMutability": "view",
      "type": "function"
    },
    {
      "inputs": [],
      "name": "cost",
      "outputs": [
        {
          "internalType": "uint256",
          "name": "",
          "type": "uint256"
        }
      ],
      "stateMutability": "view",
      "type": "function"
    },
    {
      "inputs": [
        {
          "internalType": "uint256",
          "name": "tokenId",
          "type": "uint256"
        }
      ],
      "name": "getApproved",
      "outputs": [
        {
          "internalType": "address",
          "name": "",
          "type": "address"
        }
      ],
      "stateMutability": "view",
      "type": "function"
    },
    {
      "inputs": [
        {
          "internalType": "address",
          "name": "owner",
          "type": "address"
        },
        {
          "internalType": "address",
          "name": "operator",
          "type": "address"
        }
      ],
      "name": "isApprovedForAll",
      "outputs": [
        {
          "internalType": "bool",
          "name": "",
          "type": "bool"
        }
      ],
      "stateMutability": "view",
      "type": "function"
    },
    {
      "inputs": [],
      "name": "maxSupply",
      "outputs": [
        {
          "internalType": "uint256",
          "name": "",
          "type": "uint256"
        }
      ],
      "stateMutability": "view",
      "type": "function"
    },
    {
      "inputs": [],
      "name": "name",
      "outputs": [
        {
          "internalType": "string",
          "name": "",
          "type": "string"
        }
      ],
      "stateMutability": "view",
      "type": "function"
    },
    {
      "inputs": [
        {
          "internalType": "uint256",
          "name": "tokenId",
          "type": "uint256"
        }
      ],
      "name": "ownerOf",
      "outputs": [
        {
          "internalType": "address",
          "name": "",
          "type": "address"
        }
      ],
      "stateMutability": "view",
      "type": "function"
    },
    {
      "inputs": [
        {
          "internalType": "address",
          "name": "from",
          "type": "address"
        },
        {
          "internalType": "address",
          "name": "to",
          "type": "address"
        },
        {
          "internalType": "uint256",
          "name": "tokenId",
          "type": "uint256"
        }
      ],
      "name": "safeTransferFrom",
      "outputs": [],
      "stateMutability": "nonpayable",
      "type": "function"
    },
    {
      "inputs": [
        {
          "internalType": "address",
          "name": "from",
          "type": "address"
        },
        {
          "internalType": "address",
          "name": "to",
          "type": "address"
        },
        {
          "internalType": "uint256",
          "name": "tokenId",
          "type": "uint256"
        },
        {
          "internalType": "bytes",
          "name": "_data",
          "type": "bytes"
        }
      ],
      "name": "safeTransferFrom",
      "outputs": [],
      "stateMutability": "nonpayable",
      "type": "function"
    },
    {
      "inputs": [
        {
          "internalType": "address",
          "name": "operator",
          "type": "address"
        },
        {
          "internalType": "bool",
          "name": "approved",
          "type": "bool"
        }
      ],
      "name": "setApprovalForAll",
      "outputs": [],
      "stateMutability": "nonpayable",
      "type": "function"
    },
    {
      "inputs": [
        {
          "internalType": "bytes4",
          "name": "interfaceId",
          "type": "bytes4"
        }
      ],
      "name": "supportsInterface",
      "outputs": [
        {
          "internalType": "bool",
          "name": "",
          "type": "bool"
        }
      ],
      "stateMutability": "view",
      "type": "function"
    },
    {
      "inputs": [],
      "name": "symbol",
      "outputs": [
        {
          "internalType": "string",
          "name": "",
          "type": "string"
        }
      ],
      "stateMutability": "view",
      "type": "function"
    },
    {
      "inputs": [
        {
          "internalType": "uint256",
          "name": "tokenId",
          "type": "uint256"
        }
      ],
      "name": "tokenURI",
      "outputs": [
        {
          "internalType": "string",
          "name": "",
          "type": "string"
        }
      ],
      "stateMutability": "view",
      "type": "function"
    },
    {
      "inputs": [],
      "name": "totalSupply",
      "outputs": [
        {
          "internalType": "uint256",
          "name": "",
          "type": "uint256"
        }
      ],
      "stateMutability": "view",
      "type": "function"
    },
    {
      "inputs": [
        {
          "internalType": "uint256",
          "name": "_id",
          "type": "uint256"
        }
      ],
      "name": "mint",
      "outputs": [],
      "stateMutability": "payable",
      "type": "function"
    },
    {
      "inputs": [
        {
          "internalType": "address",
          "name": "from",
          "type": "address"
        },
        {
          "internalType": "address",
          "name": "to",
          "type": "address"
        },
        {
          "internalType": "uint256",
          "name": "tokenId",
          "type": "uint256"
        }
      ],
      "name": "transferFrom",
      "outputs": [],
      "stateMutability": "nonpayable",
      "type": "function"
    },
    {
      "inputs": [
        {
          "internalType": "address",
          "name": "from",
          "type": "address"
        },
        {
          "internalType": "address",
          "name": "to",
          "type": "address"
        },
        {
          "internalType": "uint256",
          "name": "tokenId",
          "type": "uint256"
        },
        {
          "internalType": "bytes",
          "name": "_data",
          "type": "bytes"
        }
      ],
      "name": "safetransferFrom",
      "outputs": [],
      "stateMutability": "nonpayable",
      "type": "function"
    },
    {
      "inputs": [
        {
          "internalType": "uint256",
          "name": "_id",
          "type": "uint256"
        }
      ],
      "name": "getBuildings",
      "outputs": [
        {
          "components": [
            {
              "internalType": "string",
              "name": "name",
              "type": "string"
            },
            {
              "internalType": "address",
              "name": "owner",
              "type": "address"
            },
            {
              "internalType": "int256",
              "name": "posX",
              "type": "int256"
            },
            {
              "internalType": "int256",
              "name": "posY",
              "type": "int256"
            },
            {
              "internalType": "int256",
              "name": "posZ",
              "type": "int256"
            },
            {
              "internalType": "uint256",
              "name": "sizeX",
              "type": "uint256"
            },
            {
              "internalType": "uint256",
              "name": "sizeY",
              "type": "uint256"
            },
            {
              "internalType": "uint256",
              "name": "sizeZ",
              "type": "uint256"
            }
          ],
          "internalType": "struct Land.Building",
          "name": "",
          "type": "tuple"
        }
      ],
      "stateMutability": "view",
      "type": "function"
    },
    {
      "inputs": [],
      "name": "getBuildings",
      "outputs": [
        {
          "components": [
            {
              "internalType": "string",
              "name": "name",
              "type": "string"
            },
            {
              "internalType": "address",
              "name": "owner",
              "type": "address"
            },
            {
              "internalType": "int256",
              "name": "posX",
              "type": "int256"
            },
            {
              "internalType": "int256",
              "name": "posY",
              "type": "int256"
            },
            {
              "internalType": "int256",
              "name": "posZ",
              "type": "int256"
            },
            {
              "internalType": "uint256",
              "name": "sizeX",
              "type": "uint256"
            },
            {
              "internalType": "uint256",
              "name": "sizeY",
              "type": "uint256"
            },
            {
              "internalType": "uint256",
              "name": "sizeZ",
              "type": "uint256"
            }
          ],
          "internalType": "struct Land.Building[]",
          "name": "",
          "type": "tuple[]"
        }
      ],
      "stateMutability": "view",
      "type": "function"
    }
  ],
  "bytecode": "0x6080604052670de0b6b3a7640000600655600560075560006008553480156200002757600080fd5b50604051620040183803806200401883398181016040528101906200004d9190620008d1565b828281600090805190602001906200006792919062000798565b5080600190805190602001906200008092919062000798565b5050508060068190555060096040518061010001604052806040518060400160405280600981526020017f436974792048616c6c00000000000000000000000000000000000000000000008152508152602001600073ffffffffffffffffffffffffffffffffffffffff168152602001600081526020016000815260200160008152602001600a8152602001600a8152602001600a815250908060018154018082558091505060019003906000526020600020906008020160009091909190915060008201518160000190805190602001906200015f92919062000798565b5060208201518160010160006101000a81548173ffffffffffffffffffffffffffffffffffffffff021916908373ffffffffffffffffffffffffffffffffffffffff16021790555060408201518160020155606082015181600301556080820151816004015560a0820151816005015560c0820151816006015560e08201518160070155505060096040518061010001604052806040518060400160405280600781526020017f5374616469756d000000000000000000000000000000000000000000000000008152508152602001600073ffffffffffffffffffffffffffffffffffffffff16815260200160008152602001600a815260200160008152602001600a815260200160058152602001600381525090806001815401808255809150506001900390600052602060002090600802016000909190919091506000820151816000019080519060200190620002ba92919062000798565b5060208201518160010160006101000a81548173ffffffffffffffffffffffffffffffffffffffff021916908373ffffffffffffffffffffffffffffffffffffffff16021790555060408201518160020155606082015181600301556080820151816004015560a0820151816005015560c0820151816006015560e08201518160070155505060096040518061010001604052806040518060400160405280600a81526020017f556e6976657273697479000000000000000000000000000000000000000000008152508152602001600073ffffffffffffffffffffffffffffffffffffffff168152602001600081526020017ffffffffffffffffffffffffffffffffffffffffffffffffffffffffffffffff6815260200160008152602001600a8152602001600581526020016003815250908060018154018082558091505060019003906000526020600020906008020160009091909190915060008201518160000190805190602001906200043492919062000798565b5060208201518160010160006101000a81548173ffffffffffffffffffffffffffffffffffffffff021916908373ffffffffffffffffffffffffffffffffffffffff16021790555060408201518160020155606082015181600301556080820151816004015560a0820151816005015560c0820151816006015560e08201518160070155505060096040518061010001604052806040518060400160405280601081526020017f53686f7070696e6720506c617a612031000000000000000000000000000000008152508152602001600073ffffffffffffffffffffffffffffffffffffffff168152602001600a8152602001600081526020016000815260200160058152602001601981526020016005815250908060018154018082558091505060019003906000526020600020906008020160009091909190915060008201518160000190805190602001906200058f92919062000798565b5060208201518160010160006101000a81548173ffffffffffffffffffffffffffffffffffffffff021916908373ffffffffffffffffffffffffffffffffffffffff16021790555060408201518160020155606082015181600301556080820151816004015560a0820151816005015560c0820151816006015560e08201518160070155505060096040518061010001604052806040518060400160405280601081526020017f53686f7070696e6720506c617a612032000000000000000000000000000000008152508152602001600073ffffffffffffffffffffffffffffffffffffffff1681526020017ffffffffffffffffffffffffffffffffffffffffffffffffffffffffffffffff68152602001600081526020016000815260200160058152602001601981526020016005815250908060018154018082558091505060019003906000526020600020906008020160009091909190915060008201518160000190805190602001906200070992919062000798565b5060208201518160010160006101000a81548173ffffffffffffffffffffffffffffffffffffffff021916908373ffffffffffffffffffffffffffffffffffffffff16021790555060408201518160020155606082015181600301556080820151816004015560a0820151816005015560c0820151816006015560e08201518160070155505050505062000aed565b828054620007a690620009f8565b90600052602060002090601f016020900481019282620007ca576000855562000816565b82601f10620007e557805160ff191683800117855562000816565b8280016001018555821562000816579182015b8281111562000815578251825591602001919060010190620007f8565b5b50905062000825919062000829565b5090565b5b80821115620008445760008160009055506001016200082a565b5090565b60006200085f620008598462000982565b62000959565b9050828152602081018484840111156200087857600080fd5b62000885848285620009c2565b509392505050565b600082601f8301126200089f57600080fd5b8151620008b184826020860162000848565b91505092915050565b600081519050620008cb8162000ad3565b92915050565b600080600060608486031215620008e757600080fd5b600084015167ffffffffffffffff8111156200090257600080fd5b62000910868287016200088d565b935050602084015167ffffffffffffffff8111156200092e57600080fd5b6200093c868287016200088d565b92505060406200094f86828701620008ba565b9150509250925092565b60006200096562000978565b905062000973828262000a2e565b919050565b6000604051905090565b600067ffffffffffffffff821115620009a0576200099f62000a93565b5b620009ab8262000ac2565b9050602081019050919050565b6000819050919050565b60005b83811015620009e2578082015181840152602081019050620009c5565b83811115620009f2576000848401525b50505050565b6000600282049050600182168062000a1157607f821691505b6020821081141562000a285762000a2762000a64565b5b50919050565b62000a398262000ac2565b810181811067ffffffffffffffff8211171562000a5b5762000a5a62000a93565b5b80604052505050565b7f4e487b7100000000000000000000000000000000000000000000000000000000600052602260045260246000fd5b7f4e487b7100000000000000000000000000000000000000000000000000000000600052604160045260246000fd5b6000601f19601f8301169050919050565b62000ade81620009b8565b811462000aea57600080fd5b50565b61351b8062000afd6000396000f3fe60806040526004361061012a5760003560e01c806370a08231116100ab578063c87b56dd1161006f578063c87b56dd146103fc578063c918132514610439578063ca8c346214610462578063d5abeb011461049f578063d9cf6a26146104ca578063e985e9c5146104f55761012a565b806370a082311461032657806395d89b4114610363578063a0712d681461038e578063a22cb465146103aa578063b88d4fde146103d35761012a565b806318160ddd116100f257806318160ddd1461022857806323b872dd1461025357806342842e0e1461027c5780634c96a062146102a55780636352211e146102e95761012a565b806301ffc9a71461012f57806306fdde031461016c578063081812fc14610197578063095ea7b3146101d457806313faede6146101fd575b600080fd5b34801561013b57600080fd5b5061015660048036038101906101519190612310565b610532565b6040516101639190612973565b60405180910390f35b34801561017857600080fd5b50610181610614565b60405161018e919061298e565b60405180910390f35b3480156101a357600080fd5b506101be60048036038101906101b99190612362565b6106a6565b6040516101cb91906128ea565b60405180910390f35b3480156101e057600080fd5b506101fb60048036038101906101f691906122d4565b61072b565b005b34801561020957600080fd5b50610212610843565b60405161021f9190612c37565b60405180910390f35b34801561023457600080fd5b5061023d610849565b60405161024a9190612c37565b60405180910390f35b34801561025f57600080fd5b5061027a600480360381019061027591906121ce565b61084f565b005b34801561028857600080fd5b506102a3600480360381019061029e91906121ce565b610945565b005b3480156102b157600080fd5b506102cc60048036038101906102c79190612362565b610965565b6040516102e09897969594939291906129b0565b60405180910390f35b3480156102f557600080fd5b50610310600480360381019061030b9190612362565b610a65565b60405161031d91906128ea565b60405180910390f35b34801561033257600080fd5b5061034d60048036038101906103489190612169565b610b17565b60405161035a9190612c37565b60405180910390f35b34801561036f57600080fd5b50610378610bcf565b604051610385919061298e565b60405180910390f35b6103a860048036038101906103a39190612362565b610c61565b005b3480156103b657600080fd5b506103d160048036038101906103cc9190612298565b610df5565b005b3480156103df57600080fd5b506103fa60048036038101906103f5919061221d565b610e0b565b005b34801561040857600080fd5b50610423600480360381019061041e9190612362565b610e6d565b604051610430919061298e565b60405180910390f35b34801561044557600080fd5b50610460600480360381019061045b919061221d565b610f14565b005b34801561046e57600080fd5b5061048960048036038101906104849190612362565b61100c565b6040516104969190612c15565b60405180910390f35b3480156104ab57600080fd5b506104b461119f565b6040516104c19190612c37565b60405180910390f35b3480156104d657600080fd5b506104df6111a5565b6040516104ec9190612951565b60405180910390f35b34801561050157600080fd5b5061051c60048036038101906105179190612192565b611329565b6040516105299190612973565b60405180910390f35b60007f80ac58cd000000000000000000000000000000000000000000000000000000007bffffffffffffffffffffffffffffffffffffffffffffffffffffffff1916827bffffffffffffffffffffffffffffffffffffffffffffffffffffffff191614806105fd57507f5b5e139f000000000000000000000000000000000000000000000000000000007bffffffffffffffffffffffffffffffffffffffffffffffffffffffff1916827bffffffffffffffffffffffffffffffffffffffffffffffffffffffff1916145b8061060d575061060c826113bd565b5b9050919050565b60606000805461062390612eb0565b80601f016020809104026020016040519081016040528092919081815260200182805461064f90612eb0565b801561069c5780601f106106715761010080835404028352916020019161069c565b820191906000526020600020905b81548152906001019060200180831161067f57829003601f168201915b5050505050905090565b60006106b182611427565b6106f0576040517f08c379a00000000000000000000000000000000000000000000000000000000081526004016106e790612b95565b60405180910390fd5b6004600083815260200190815260200160002060009054906101000a900473ffffffffffffffffffffffffffffffffffffffff169050919050565b600061073682610a65565b90508073ffffffffffffffffffffffffffffffffffffffff168373ffffffffffffffffffffffffffffffffffffffff1614156107a7576040517f08c379a000000000000000000000000000000000000000000000000000000000815260040161079e90612bd5565b60405180910390fd5b8073ffffffffffffffffffffffffffffffffffffffff166107c6611493565b73ffffffffffffffffffffffffffffffffffffffff1614806107f557506107f4816107ef611493565b611329565b5b610834576040517f08c379a000000000000000000000000000000000000000000000000000000000815260040161082b90612b15565b60405180910390fd5b61083e838361149b565b505050565b60065481565b60085481565b61086061085a611493565b82611554565b61089f576040517f08c379a000000000000000000000000000000000000000000000000000000000815260040161089690612a95565b60405180910390fd5b8160096001836108af9190612dbc565b815481106108e6577f4e487b7100000000000000000000000000000000000000000000000000000000600052603260045260246000fd5b906000526020600020906008020160010160006101000a81548173ffffffffffffffffffffffffffffffffffffffff021916908373ffffffffffffffffffffffffffffffffffffffff160217905550610940838383611632565b505050565b61096083838360405180602001604052806000815250610e0b565b505050565b6009818154811061097557600080fd5b906000526020600020906008020160009150905080600001805461099890612eb0565b80601f01602080910402602001604051908101604052809291908181526020018280546109c490612eb0565b8015610a115780601f106109e657610100808354040283529160200191610a11565b820191906000526020600020905b8154815290600101906020018083116109f457829003601f168201915b5050505050908060010160009054906101000a900473ffffffffffffffffffffffffffffffffffffffff16908060020154908060030154908060040154908060050154908060060154908060070154905088565b6000806002600084815260200190815260200160002060009054906101000a900473ffffffffffffffffffffffffffffffffffffffff169050600073ffffffffffffffffffffffffffffffffffffffff168173ffffffffffffffffffffffffffffffffffffffff161415610b0e576040517f08c379a0000000000000000000000000000000000000000000000000000000008152600401610b0590612b55565b60405180910390fd5b80915050919050565b60008073ffffffffffffffffffffffffffffffffffffffff168273ffffffffffffffffffffffffffffffffffffffff161415610b88576040517f08c379a0000000000000000000000000000000000000000000000000000000008152600401610b7f90612b35565b60405180910390fd5b600360008373ffffffffffffffffffffffffffffffffffffffff1673ffffffffffffffffffffffffffffffffffffffff168152602001908152602001600020549050919050565b606060018054610bde90612eb0565b80601f0160208091040260200160405190810160405280929190818152602001828054610c0a90612eb0565b8015610c575780601f10610c2c57610100808354040283529160200191610c57565b820191906000526020600020905b815481529060010190602001808311610c3a57829003601f168201915b5050505050905090565b60006008549050600754811115610c7757600080fd5b600073ffffffffffffffffffffffffffffffffffffffff166009600184610c9e9190612dbc565b81548110610cd5577f4e487b7100000000000000000000000000000000000000000000000000000000600052603260045260246000fd5b906000526020600020906008020160010160009054906101000a900473ffffffffffffffffffffffffffffffffffffffff1673ffffffffffffffffffffffffffffffffffffffff1614610d2757600080fd5b670de0b6b3a7640000341015610d3c57600080fd5b336009600184610d4c9190612dbc565b81548110610d83577f4e487b7100000000000000000000000000000000000000000000000000000000600052603260045260246000fd5b906000526020600020906008020160010160006101000a81548173ffffffffffffffffffffffffffffffffffffffff021916908373ffffffffffffffffffffffffffffffffffffffff1602179055506001600854610de19190612d35565b600881905550610df13383611899565b5050565b610e07610e00611493565b83836118b7565b5050565b610e1c610e16611493565b83611554565b610e5b576040517f08c379a0000000000000000000000000000000000000000000000000000000008152600401610e5290612bf5565b60405180910390fd5b610e6784848484611a24565b50505050565b6060610e7882611427565b610eb7576040517f08c379a0000000000000000000000000000000000000000000000000000000008152600401610eae90612bb5565b60405180910390fd5b6000610ec1611a80565b90506000815111610ee15760405180602001604052806000815250610f0c565b80610eeb84611a97565b604051602001610efc9291906128c6565b6040516020818303038152906040525b915050919050565b610f25610f1f611493565b83611554565b610f64576040517f08c379a0000000000000000000000000000000000000000000000000000000008152600401610f5b90612a95565b60405180910390fd5b826009600184610f749190612dbc565b81548110610fab577f4e487b7100000000000000000000000000000000000000000000000000000000600052603260045260246000fd5b906000526020600020906008020160010160006101000a81548173ffffffffffffffffffffffffffffffffffffffff021916908373ffffffffffffffffffffffffffffffffffffffff16021790555061100684848484611a24565b50505050565b61101461203d565b60096001836110239190612dbc565b8154811061105a577f4e487b7100000000000000000000000000000000000000000000000000000000600052603260045260246000fd5b90600052602060002090600802016040518061010001604052908160008201805461108490612eb0565b80601f01602080910402602001604051908101604052809291908181526020018280546110b090612eb0565b80156110fd5780601f106110d2576101008083540402835291602001916110fd565b820191906000526020600020905b8154815290600101906020018083116110e057829003601f168201915b505050505081526020016001820160009054906101000a900473ffffffffffffffffffffffffffffffffffffffff1673ffffffffffffffffffffffffffffffffffffffff1673ffffffffffffffffffffffffffffffffffffffff16815260200160028201548152602001600382015481526020016004820154815260200160058201548152602001600682015481526020016007820154815250509050919050565b60075481565b60606009805480602002602001604051908101604052809291908181526020016000905b828210156113205783829060005260206000209060080201604051806101000160405290816000820180546111fd90612eb0565b80601f016020809104026020016040519081016040528092919081815260200182805461122990612eb0565b80156112765780601f1061124b57610100808354040283529160200191611276565b820191906000526020600020905b81548152906001019060200180831161125957829003601f168201915b505050505081526020016001820160009054906101000a900473ffffffffffffffffffffffffffffffffffffffff1673ffffffffffffffffffffffffffffffffffffffff1673ffffffffffffffffffffffffffffffffffffffff1681526020016002820154815260200160038201548152602001600482015481526020016005820154815260200160068201548152602001600782015481525050815260200190600101906111c9565b50505050905090565b6000600560008473ffffffffffffffffffffffffffffffffffffffff1673ffffffffffffffffffffffffffffffffffffffff16815260200190815260200160002060008373ffffffffffffffffffffffffffffffffffffffff1673ffffffffffffffffffffffffffffffffffffffff16815260200190815260200160002060009054906101000a900460ff16905092915050565b60007f01ffc9a7000000000000000000000000000000000000000000000000000000007bffffffffffffffffffffffffffffffffffffffffffffffffffffffff1916827bffffffffffffffffffffffffffffffffffffffffffffffffffffffff1916149050919050565b60008073ffffffffffffffffffffffffffffffffffffffff166002600084815260200190815260200160002060009054906101000a900473ffffffffffffffffffffffffffffffffffffffff1673ffffffffffffffffffffffffffffffffffffffff1614159050919050565b600033905090565b816004600083815260200190815260200160002060006101000a81548173ffffffffffffffffffffffffffffffffffffffff021916908373ffffffffffffffffffffffffffffffffffffffff160217905550808273ffffffffffffffffffffffffffffffffffffffff1661150e83610a65565b73ffffffffffffffffffffffffffffffffffffffff167f8c5be1e5ebec7d5bd14f71427d1e84f3dd0314c0f7b2291e5b200ac8c7c3b92560405160405180910390a45050565b600061155f82611427565b61159e576040517f08c379a000000000000000000000000000000000000000000000000000000000815260040161159590612af5565b60405180910390fd5b60006115a983610a65565b90508073ffffffffffffffffffffffffffffffffffffffff168473ffffffffffffffffffffffffffffffffffffffff1614806115eb57506115ea8185611329565b5b8061162957508373ffffffffffffffffffffffffffffffffffffffff16611611846106a6565b73ffffffffffffffffffffffffffffffffffffffff16145b91505092915050565b8273ffffffffffffffffffffffffffffffffffffffff1661165282610a65565b73ffffffffffffffffffffffffffffffffffffffff16146116a8576040517f08c379a000000000000000000000000000000000000000000000000000000000815260040161169f90612a55565b60405180910390fd5b600073ffffffffffffffffffffffffffffffffffffffff168273ffffffffffffffffffffffffffffffffffffffff161415611718576040517f08c379a000000000000000000000000000000000000000000000000000000000815260040161170f90612ab5565b60405180910390fd5b611723838383611c44565b61172e60008261149b565b6001600360008573ffffffffffffffffffffffffffffffffffffffff1673ffffffffffffffffffffffffffffffffffffffff168152602001908152602001600020600082825461177e9190612dbc565b925050819055506001600360008473ffffffffffffffffffffffffffffffffffffffff1673ffffffffffffffffffffffffffffffffffffffff16815260200190815260200160002060008282546117d59190612d35565b92505081905550816002600083815260200190815260200160002060006101000a81548173ffffffffffffffffffffffffffffffffffffffff021916908373ffffffffffffffffffffffffffffffffffffffff160217905550808273ffffffffffffffffffffffffffffffffffffffff168473ffffffffffffffffffffffffffffffffffffffff167fddf252ad1be2c89b69c2b068fc378daa952ba7f163c4a11628f55a4df523b3ef60405160405180910390a4611894838383611c49565b505050565b6118b3828260405180602001604052806000815250611c4e565b5050565b8173ffffffffffffffffffffffffffffffffffffffff168373ffffffffffffffffffffffffffffffffffffffff161415611926576040517f08c379a000000000000000000000000000000000000000000000000000000000815260040161191d90612ad5565b60405180910390fd5b80600560008573ffffffffffffffffffffffffffffffffffffffff1673ffffffffffffffffffffffffffffffffffffffff16815260200190815260200160002060008473ffffffffffffffffffffffffffffffffffffffff1673ffffffffffffffffffffffffffffffffffffffff16815260200190815260200160002060006101000a81548160ff0219169083151502179055508173ffffffffffffffffffffffffffffffffffffffff168373ffffffffffffffffffffffffffffffffffffffff167f17307eab39ab6107e8899845ad3d59bd9653f200f220920489ca2b5937696c3183604051611a179190612973565b60405180910390a3505050565b611a2f848484611632565b611a3b84848484611ca9565b611a7a576040517f08c379a0000000000000000000000000000000000000000000000000000000008152600401611a7190612a35565b60405180910390fd5b50505050565b606060405180602001604052806000815250905090565b60606000821415611adf576040518060400160405280600181526020017f30000000000000000000000000000000000000000000000000000000000000008152509050611c3f565b600082905060005b60008214611b11578080611afa90612f13565b915050600a82611b0a9190612d8b565b9150611ae7565b60008167ffffffffffffffff811115611b53577f4e487b7100000000000000000000000000000000000000000000000000000000600052604160045260246000fd5b6040519080825280601f01601f191660200182016040528015611b855781602001600182028036833780820191505090505b5090505b60008514611c3857600182611b9e9190612dbc565b9150600a85611bad9190612f5c565b6030611bb99190612d35565b60f81b818381518110611bf5577f4e487b7100000000000000000000000000000000000000000000000000000000600052603260045260246000fd5b60200101907effffffffffffffffffffffffffffffffffffffffffffffffffffffffffffff1916908160001a905350600a85611c319190612d8b565b9450611b89565b8093505050505b919050565b505050565b505050565b611c588383611e40565b611c656000848484611ca9565b611ca4576040517f08c379a0000000000000000000000000000000000000000000000000000000008152600401611c9b90612a35565b60405180910390fd5b505050565b6000611cca8473ffffffffffffffffffffffffffffffffffffffff1661201a565b15611e33578373ffffffffffffffffffffffffffffffffffffffff1663150b7a02611cf3611493565b8786866040518563ffffffff1660e01b8152600401611d159493929190612905565b602060405180830381600087803b158015611d2f57600080fd5b505af1925050508015611d6057506040513d601f19601f82011682018060405250810190611d5d9190612339565b60015b611de3573d8060008114611d90576040519150601f19603f3d011682016040523d82523d6000602084013e611d95565b606091505b50600081511415611ddb576040517f08c379a0000000000000000000000000000000000000000000000000000000008152600401611dd290612a35565b60405180910390fd5b805181602001fd5b63150b7a0260e01b7bffffffffffffffffffffffffffffffffffffffffffffffffffffffff1916817bffffffffffffffffffffffffffffffffffffffffffffffffffffffff191614915050611e38565b600190505b949350505050565b600073ffffffffffffffffffffffffffffffffffffffff168273ffffffffffffffffffffffffffffffffffffffff161415611eb0576040517f08c379a0000000000000000000000000000000000000000000000000000000008152600401611ea790612b75565b60405180910390fd5b611eb981611427565b15611ef9576040517f08c379a0000000000000000000000000000000000000000000000000000000008152600401611ef090612a75565b60405180910390fd5b611f0560008383611c44565b6001600360008473ffffffffffffffffffffffffffffffffffffffff1673ffffffffffffffffffffffffffffffffffffffff1681526020019081526020016000206000828254611f559190612d35565b92505081905550816002600083815260200190815260200160002060006101000a81548173ffffffffffffffffffffffffffffffffffffffff021916908373ffffffffffffffffffffffffffffffffffffffff160217905550808273ffffffffffffffffffffffffffffffffffffffff16600073ffffffffffffffffffffffffffffffffffffffff167fddf252ad1be2c89b69c2b068fc378daa952ba7f163c4a11628f55a4df523b3ef60405160405180910390a461201660008383611c49565b5050565b6000808273ffffffffffffffffffffffffffffffffffffffff163b119050919050565b60405180610100016040528060608152602001600073ffffffffffffffffffffffffffffffffffffffff1681526020016000815260200160008152602001600081526020016000815260200160008152602001600081525090565b60006120ab6120a684612c77565b612c52565b9050828152602081018484840111156120c357600080fd5b6120ce848285612e6e565b509392505050565b6000813590506120e581613489565b92915050565b6000813590506120fa816134a0565b92915050565b60008135905061210f816134b7565b92915050565b600081519050612124816134b7565b92915050565b600082601f83011261213b57600080fd5b813561214b848260208601612098565b91505092915050565b600081359050612163816134ce565b92915050565b60006020828403121561217b57600080fd5b6000612189848285016120d6565b91505092915050565b600080604083850312156121a557600080fd5b60006121b3858286016120d6565b92505060206121c4858286016120d6565b9150509250929050565b6000806000606084860312156121e357600080fd5b60006121f1868287016120d6565b9350506020612202868287016120d6565b925050604061221386828701612154565b9150509250925092565b6000806000806080858703121561223357600080fd5b6000612241878288016120d6565b9450506020612252878288016120d6565b935050604061226387828801612154565b925050606085013567ffffffffffffffff81111561228057600080fd5b61228c8782880161212a565b91505092959194509250565b600080604083850312156122ab57600080fd5b60006122b9858286016120d6565b92505060206122ca858286016120eb565b9150509250929050565b600080604083850312156122e757600080fd5b60006122f5858286016120d6565b925050602061230685828601612154565b9150509250929050565b60006020828403121561232257600080fd5b600061233084828501612100565b91505092915050565b60006020828403121561234b57600080fd5b600061235984828501612115565b91505092915050565b60006020828403121561237457600080fd5b600061238284828501612154565b91505092915050565b60006123978383612748565b905092915050565b6123a881612df0565b82525050565b6123b781612df0565b82525050565b60006123c882612cb8565b6123d28185612ce6565b9350836020820285016123e485612ca8565b8060005b858110156124205784840389528151612401858261238b565b945061240c83612cd9565b925060208a019950506001810190506123e8565b50829750879550505050505092915050565b61243b81612e02565b82525050565b600061244c82612cc3565b6124568185612cf7565b9350612466818560208601612e7d565b61246f81613049565b840191505092915050565b61248381612e3a565b82525050565b61249281612e3a565b82525050565b60006124a382612cce565b6124ad8185612d08565b93506124bd818560208601612e7d565b6124c681613049565b840191505092915050565b60006124dc82612cce565b6124e68185612d19565b93506124f6818560208601612e7d565b6124ff81613049565b840191505092915050565b600061251582612cce565b61251f8185612d2a565b935061252f818560208601612e7d565b80840191505092915050565b6000612548603283612d19565b91506125538261305a565b604082019050919050565b600061256b602583612d19565b9150612576826130a9565b604082019050919050565b600061258e601c83612d19565b9150612599826130f8565b602082019050919050565b60006125b1602f83612d19565b91506125bc82613121565b604082019050919050565b60006125d4602483612d19565b91506125df82613170565b604082019050919050565b60006125f7601983612d19565b9150612602826131bf565b602082019050919050565b600061261a602c83612d19565b9150612625826131e8565b604082019050919050565b600061263d603883612d19565b915061264882613237565b604082019050919050565b6000612660602a83612d19565b915061266b82613286565b604082019050919050565b6000612683602983612d19565b915061268e826132d5565b604082019050919050565b60006126a6602083612d19565b91506126b182613324565b602082019050919050565b60006126c9602c83612d19565b91506126d48261334d565b604082019050919050565b60006126ec602f83612d19565b91506126f78261339c565b604082019050919050565b600061270f602183612d19565b915061271a826133eb565b604082019050919050565b6000612732603183612d19565b915061273d8261343a565b604082019050919050565b60006101008301600083015184820360008601526127668282612498565b915050602083015161277b602086018261239f565b50604083015161278e604086018261247a565b5060608301516127a1606086018261247a565b5060808301516127b4608086018261247a565b5060a08301516127c760a08601826128a8565b5060c08301516127da60c08601826128a8565b5060e08301516127ed60e08601826128a8565b508091505092915050565b60006101008301600083015184820360008601526128168282612498565b915050602083015161282b602086018261239f565b50604083015161283e604086018261247a565b506060830151612851606086018261247a565b506080830151612864608086018261247a565b5060a083015161287760a08601826128a8565b5060c083015161288a60c08601826128a8565b5060e083015161289d60e08601826128a8565b508091505092915050565b6128b181612e64565b82525050565b6128c081612e64565b82525050565b60006128d2828561250a565b91506128de828461250a565b91508190509392505050565b60006020820190506128ff60008301846123ae565b92915050565b600060808201905061291a60008301876123ae565b61292760208301866123ae565b61293460408301856128b7565b81810360608301526129468184612441565b905095945050505050565b6000602082019050818103600083015261296b81846123bd565b905092915050565b60006020820190506129886000830184612432565b92915050565b600060208201905081810360008301526129a881846124d1565b905092915050565b60006101008201905081810360008301526129cb818b6124d1565b90506129da602083018a6123ae565b6129e76040830189612489565b6129f46060830188612489565b612a016080830187612489565b612a0e60a08301866128b7565b612a1b60c08301856128b7565b612a2860e08301846128b7565b9998505050505050505050565b60006020820190508181036000830152612a4e8161253b565b9050919050565b60006020820190508181036000830152612a6e8161255e565b9050919050565b60006020820190508181036000830152612a8e81612581565b9050919050565b60006020820190508181036000830152612aae816125a4565b9050919050565b60006020820190508181036000830152612ace816125c7565b9050919050565b60006020820190508181036000830152612aee816125ea565b9050919050565b60006020820190508181036000830152612b0e8161260d565b9050919050565b60006020820190508181036000830152612b2e81612630565b9050919050565b60006020820190508181036000830152612b4e81612653565b9050919050565b60006020820190508181036000830152612b6e81612676565b9050919050565b60006020820190508181036000830152612b8e81612699565b9050919050565b60006020820190508181036000830152612bae816126bc565b9050919050565b60006020820190508181036000830152612bce816126df565b9050919050565b60006020820190508181036000830152612bee81612702565b9050919050565b60006020820190508181036000830152612c0e81612725565b9050919050565b60006020820190508181036000830152612c2f81846127f8565b905092915050565b6000602082019050612c4c60008301846128b7565b92915050565b6000612c5c612c6d565b9050612c688282612ee2565b919050565b6000604051905090565b600067ffffffffffffffff821115612c9257612c9161301a565b5b612c9b82613049565b9050602081019050919050565b6000819050602082019050919050565b600081519050919050565b600081519050919050565b600081519050919050565b6000602082019050919050565b600082825260208201905092915050565b600082825260208201905092915050565b600082825260208201905092915050565b600082825260208201905092915050565b600081905092915050565b6000612d4082612e64565b9150612d4b83612e64565b9250827fffffffffffffffffffffffffffffffffffffffffffffffffffffffffffffffff03821115612d8057612d7f612f8d565b5b828201905092915050565b6000612d9682612e64565b9150612da183612e64565b925082612db157612db0612fbc565b5b828204905092915050565b6000612dc782612e64565b9150612dd283612e64565b925082821015612de557612de4612f8d565b5b828203905092915050565b6000612dfb82612e44565b9050919050565b60008115159050919050565b60007fffffffff0000000000000000000000000000000000000000000000000000000082169050919050565b6000819050919050565b600073ffffffffffffffffffffffffffffffffffffffff82169050919050565b6000819050919050565b82818337600083830152505050565b60005b83811015612e9b578082015181840152602081019050612e80565b83811115612eaa576000848401525b50505050565b60006002820490506001821680612ec857607f821691505b60208210811415612edc57612edb612feb565b5b50919050565b612eeb82613049565b810181811067ffffffffffffffff82111715612f0a57612f0961301a565b5b80604052505050565b6000612f1e82612e64565b91507fffffffffffffffffffffffffffffffffffffffffffffffffffffffffffffffff821415612f5157612f50612f8d565b5b600182019050919050565b6000612f6782612e64565b9150612f7283612e64565b925082612f8257612f81612fbc565b5b828206905092915050565b7f4e487b7100000000000000000000000000000000000000000000000000000000600052601160045260246000fd5b7f4e487b7100000000000000000000000000000000000000000000000000000000600052601260045260246000fd5b7f4e487b7100000000000000000000000000000000000000000000000000000000600052602260045260246000fd5b7f4e487b7100000000000000000000000000000000000000000000000000000000600052604160045260246000fd5b6000601f19601f8301169050919050565b7f4552433732313a207472616e7366657220746f206e6f6e20455243373231526560008201527f63656976657220696d706c656d656e7465720000000000000000000000000000602082015250565b7f4552433732313a207472616e736665722066726f6d20696e636f72726563742060008201527f6f776e6572000000000000000000000000000000000000000000000000000000602082015250565b7f4552433732313a20746f6b656e20616c7265616479206d696e74656400000000600082015250565b7f4552433732313a207472616e736665722063616c6c65722069736e6f74206f7760008201527f6e6572206f7220617070726f7665640000000000000000000000000000000000602082015250565b7f4552433732313a207472616e7366657220746f20746865207a65726f2061646460008201527f7265737300000000000000000000000000000000000000000000000000000000602082015250565b7f4552433732313a20617070726f766520746f2063616c6c657200000000000000600082015250565b7f4552433732313a206f70657261746f7220717565727920666f72206e6f6e657860008201527f697374656e7420746f6b656e0000000000000000000000000000000000000000602082015250565b7f4552433732313a20617070726f76652063616c6c6572206973206e6f74206f7760008201527f6e6572206e6f7220617070726f76656420666f7220616c6c0000000000000000602082015250565b7f4552433732313a2062616c616e636520717565727920666f7220746865207a6560008201527f726f206164647265737300000000000000000000000000000000000000000000602082015250565b7f4552433732313a206f776e657220717565727920666f72206e6f6e657869737460008201527f656e7420746f6b656e0000000000000000000000000000000000000000000000602082015250565b7f4552433732313a206d696e7420746f20746865207a65726f2061646472657373600082015250565b7f4552433732313a20617070726f76656420717565727920666f72206e6f6e657860008201527f697374656e7420746f6b656e0000000000000000000000000000000000000000602082015250565b7f4552433732314d657461646174613a2055524920717565727920666f72206e6f60008201527f6e6578697374656e7420746f6b656e0000000000000000000000000000000000602082015250565b7f4552433732313a20617070726f76616c20746f2063757272656e74206f776e6560008201527f7200000000000000000000000000000000000000000000000000000000000000602082015250565b7f4552433732313a207472616e736665722063616c6c6572206973206e6f74206f60008201527f776e6572206e6f7220617070726f766564000000000000000000000000000000602082015250565b61349281612df0565b811461349d57600080fd5b50565b6134a981612e02565b81146134b457600080fd5b50565b6134c081612e0e565b81146134cb57600080fd5b50565b6134d781612e64565b81146134e257600080fd5b5056fea26469706673582212202609252bf6cd143960e24ccee37f58a5fba83940d5048ad6e0b2f78a5a3725fa64736f6c63430008020033",
  "immutableReferences": {},
  "source": "// SPDX-License-Identifier: MIT\npragma solidity ^0.8.0;\n\nimport \"@openzeppelin/contracts/token/ERC721/ERC721.sol\";\n\ncontract Land is ERC721 {\n\n    uint256 public cost = 1 ether;\n    uint256 public maxSupply = 5;\n    uint256 public totalSupply = 0;\n\n    struct Building {\n        string name;\n        address owner;\n        int256 posX;\n        int256 posY;\n        int256 posZ;\n        uint256 sizeX;\n        uint256 sizeY;\n        uint256 sizeZ;\n    }\n\n    Building[] public buildings;\n\n    constructor(string memory _name, string memory _symbol, uint256 _cost) ERC721(_name, _symbol)  {\n        cost = _cost;\n        buildings.push(\n            Building(\"City Hall\", address(0x0), 0, 0, 0, 10, 10, 10)\n        );\n        buildings.push(\n            Building(\"Stadium\", address(0x0), 0, 10, 0, 10, 5, 3)\n        );\n        buildings.push(\n            Building(\"University\", address(0x0), 0, -10, 0, 10, 5, 3)\n        );\n        buildings.push(\n            Building(\"Shopping Plaza 1\", address(0x0), 10, 0, 0, 5, 25, 5)\n        );\n        buildings.push(\n            Building(\"Shopping Plaza 2\", address(0x0), -10, 0, 0, 5, 25, 5)\n        );\n\n    }\n\n    function mint(uint256 _id) public payable {\n        uint256 supply = totalSupply;\n        require(supply <= maxSupply);\n        require(buildings[_id - 1].owner == address(0x0));\n        require(msg.value >= 1 ether);\n\n        buildings[_id - 1].owner = msg.sender;\n        totalSupply = totalSupply + 1;\n        _safeMint(msg.sender, _id);\n    }\n\n    function transferFrom(\n        address from,\n        address to,\n        uint256 tokenId\n    ) public override {\n        require(\n            _isApprovedOrOwner(_msgSender(), tokenId),\n            \"ERC721: transfer caller isnot owner or approved\"\n        );\n\n        buildings[tokenId -1].owner = to;\n        _transfer(from, to, tokenId);\n    }\n\n    function safetransferFrom(\n        address from,\n        address to,\n        uint256 tokenId,\n        bytes memory _data\n    ) public {\n        require(\n            _isApprovedOrOwner(_msgSender(), tokenId),\n            \"ERC721: transfer caller isnot owner or approved\"\n        );\n\n        buildings[tokenId -1].owner = to;\n\n        _safeTransfer(from, to, tokenId, _data);\n    }\n\n    function getBuildings() public view returns(Building[] memory) {\n        return buildings;\n    }\n\n    function getBuildings(uint256 _id) public view returns (Building memory) {\n        return buildings[_id - 1];\n    }\n}",
  "sourcePath": "C:\\Users\\braxt\\metaverse\\src\\contracts\\Land.sol",
  "compiler": {
    "name": "solc",
    "version": "0.8.2+commit.661d1103.Emscripten.clang"
  },
  "schemaVersion": "3.4.7",
  "updatedAt": "2022-05-05T23:47:04.874Z",
  "devdoc": {
    "kind": "dev",
    "methods": {
      "approve(address,uint256)": {
        "details": "See {IERC721-approve}."
      },
      "balanceOf(address)": {
        "details": "See {IERC721-balanceOf}."
      },
      "getApproved(uint256)": {
        "details": "See {IERC721-getApproved}."
      },
      "isApprovedForAll(address,address)": {
        "details": "See {IERC721-isApprovedForAll}."
      },
      "name()": {
        "details": "See {IERC721Metadata-name}."
      },
      "ownerOf(uint256)": {
        "details": "See {IERC721-ownerOf}."
      },
      "safeTransferFrom(address,address,uint256)": {
        "details": "See {IERC721-safeTransferFrom}."
      },
      "safeTransferFrom(address,address,uint256,bytes)": {
        "details": "See {IERC721-safeTransferFrom}."
      },
      "setApprovalForAll(address,bool)": {
        "details": "See {IERC721-setApprovalForAll}."
      },
      "supportsInterface(bytes4)": {
        "details": "See {IERC165-supportsInterface}."
      },
      "symbol()": {
        "details": "See {IERC721Metadata-symbol}."
      },
      "tokenURI(uint256)": {
        "details": "See {IERC721Metadata-tokenURI}."
      },
      "transferFrom(address,address,uint256)": {
        "details": "See {IERC721-transferFrom}."
      }
    },
    "version": 1
  },
  "userdoc": {
    "kind": "user",
    "methods": {},
    "version": 1
  }
}